S0190000456C697361332D6176722D73747564696F2E73726563AF
S11300000C947A010C949B010C949B010C949B011D
S11300100C949B010C949B010C949B010C949B01EC
S11300200C949B010C949B010C94531D0C949B0108
S11300300C949B010C94871D0C949B010C944A25F1
S11300400C949B010C949B010C949B010C949B01BC
S11300500C949B010C949B010C949B010C949B01AC
S11300600C949B010C9426240C949B010C949B01EE
S11300700C949B010C94D5250C949B010C949B012E
S11300800C94B3430C94C9430C949B010C942843E3
S11300900C949B010C949B010C949B010C949B016C
S11300A00C949B010C949B010C94FC420C94124301
S11300B00C949B010C9467420C949B010C949B013F
S11300C00C949B010C949B010C949B010C949B013C
S11300D00C949B010C949B010C949B010C949B012C
S11300E00C949B01F809130A080AE4092E062E064B
S11300F02E062E062E062E062E062E06B006770394
S11301000C034F0D730B8B0DD20B420BC10A780BF2
S1130110560B2B2013205320F81FCD1FBB1F911FFC
S1130120761F3D1F211FCC1ECC1ECC1ECC1ECC1E08
S1130130CC1E6A1F161FCC1ECC1ECC1ECC1ECC1E81
S1130140CC1ECC1ECC1ECC1ECC1ECC1ECC1E3D1FE9
S113015053200A1FFD1ECC1ECC1ECC1ECC1ECC1E52
S1130160CC1ECC1ECC1ECC1ECC1ECC1ECC1ECD1F39
S1130170911FCC1ECC1E2B20BB1FEB1E66295A29B7
S11301804E29422936292B291F29CE29BB299C29EE
S11301907529AF297129CE2FF42FB3302D30843037
S11301A0D230DD30442F8A2F084AD73B3BCE016E34
S11301B084BCBFFDC12F3D6C74319ABD56833DDABA
S11301C03D00C77F11BED9E4BB4C3E916BAAAABEC9
S11301D0000000803F07634236B79BD8A71A3968EE
S11301E05618AEBAAB558C1D3CB7CC5763BD6DEDFC
S11301F0FD753EF6177231BF000000803F05A84C24
S1130200CDB2D44EB93836A9020C50B991868808BB
S11302103CA6AAAA2ABE000000803F000C948B0DC5
S11302200C94CD1F0C94CE2F0C94442F0C94FD1ED3
S11302300C94211F0C945A290C94130A0C94911FAA
S11302400C9471290C942E060C942D300C942B29AB
S11302500C940C030C9453200C944F0D0C94F8093B
S11302600C94560B0C94CC1E0C9475290C94780B9E
S11302700C9436290C948A2F0C949C290C940A1FF4
S11302800C9442290C944E290C94DD300C94843047
S11302900C94D2300C94D20B0C9466290C942B2021
S11302A00C94730B0C94F42F0C94420B0C94BB1F02
S11302B00C94BB290C94C10A0C9413200C94761F43
S11302C00C94080A0C9477030C94161F0C94EB1EE0
S11302D00C94B3300C943D1F0C94CE290C94E40977
S11302E00C94AF290C941F290C94F81F0C94B0069D
S11302F00C946A1F11241FBECFEFD1E2DEBFCDBF25
S113030000E00CBF12E0A0E0B2E0E6E0F5EA00E0B5
S11303100BBF02C007900D92AE32B107D9F725E1A9
S1130320AEE2B2E001C01D92A236B207E1F70E942C
S11303309D010C9481520C940000CF93DF93CDB7B0
S1130340DEB7C755D3400FB6F894DEBF0FBECDBF9E
S11303509E012F5F3F4FCF5DDC4F39832883C1520D
S1130360D34080E293E0D901FC011D923197E9F773
S11303700E94EA240E94DF430E9454258B019C01C1
S11303806093BC021093BD022093BE023093BF025F
S11303901092C0021092C1021092C2021092C302C3
S11303A00E9454256B017C010E945425DC01CB0181
S11303B08C199D09AE09BF0985349B40A105B1057F
S11303C098F30E94A6470E945425CA5CDC4F6883B8
S11303D079838A839B83C653D3400E9461250E94FC
S11303E054256093C4027093C5028093C60290930F
S11303F0C7020E945425C85BDC4F688379838A83D3
S11304009B83C854D340C05BDC4F188219821A8284
S11304101B82C055D340CC5ADC4F188219821A82F1
S11304201B82C455D340C05CDC4F188219821A82E7
S11304301B82C054D340CC5BDC4F188219821A82D1
S11304401B82C454D340C45BDC4F188219821A82C5
S11304501B82CC54D340C95DDC4F188219821A82A6
S11304601B82C752D340CF5CDC4F188219821A8298
S11304701B82C153D340C15CDC4F1882CF53D3409D
S1130480C65CDC4F1882CA53D340C55CDC4F18826B
S113049019821A821B82CB53D340CB5CDC4F188267
S11304A0C553D340449845980E945425DC01CB01A0
S11304B0CF5CDC4F288139814A815B81C153D340B1
S11304C0821B930BA40BB50B8093F1039093F2035F
S11304D0A093F303B093F4030E945425CF5CDC4F44
S11304E0688379838A839B83C153D3400E94D62433
S11304F08093CC020E9454256B017C010E9491469A
S11305000E944B4C0E945425DC01CB018C199D099F
S1130510AE09BF098093E9039093EA03A093EB0328
S1130520B093EC030E945425DC01CB01CA5CDC4F80
S1130530288139814A815B81C653D340821B930B46
S1130540A40BB50B8E319B44A105B10510F00C949E
S1130550700E0E94961E80912E02833011F40C942A
S11305606C0E882311F40C946C0E41E040932B071D
S1130570109206040E94C915882361F120912B0270
S113058030912C022115310529F1A2EDB8E0FE01CC
S1130590319682E497E0220F331F220F331F2E522D
S11305A0374F8D01D8014D915D916D917D918D01F4
S11305B04083518362837383DC014D915D916D911E
S11305C07D91CD01448355836683778338960217E2
S11305D0130741F780912B07882381F08091AF02A4
S11305E09091B002A091B102B091B20280932C0715
S11305F090932D07A0932E07B0932F078091CC02E0
S113060090E08F30910508F029C3FC018827EE584B
S1130610FF4F8F4F0C9485510E94DE456091320745
S113062070913307809134079091350760930204E9
S1130630709303048093040490930504C0903607D8
S1130640D0903707E0903807F0903907C092FE0346
S1130650D092FF03E0920004F09201040091290279
S113066010912A02CC5BDC4F288139814A815B815D
S1130670C454D3400E94DA4C20E030E048E452EC09
S11306800E9438504B015C0160932F02709330023A
S11306908093310290933202C05CDC4F288139810F
S11306A04A815B81C054D340C701B6010E94DA4C31
S11306B020E030E048E452EC0E9438506B017C01A9
S11306C06093330270933402809335029093360220
S11306D080912E0290E08830910510F00C94730BF9
S11306E0FC018827EF57FF4F8F4F0C9485510E94D0
S11306F0DE4510923F021092400210924102109285
S11307004202109243021092440210924502109247
S1130710460280912B0290912C02009711F40C94C4
S1130720B81452E8252E5DE0352E8E010F5F1F4F61
S1130730A2EFBBE0C95DDC4FB983A883C752D340A5
S1130740E2E6FAE0C55DDC4FF983E883CB52D3409F
S1130750880F991F880F991F9C012E57324FC15D36
S1130760DC4F39832883CF52D340CD5DDC4F1882D0
S113077019821A821B82C352D340812C912C5401BA
S1130780D101CD90DD90ED90FD901D01F7FAF0942C
S1130790F7F8F094C95DDC4FE881F981C752D34082
S11307A04190519061907190C95DDC4FF983E88369
S11307B0C752D340D8012D913D914D915C91C70111
S11307C0B6010E943850A30192010E94DB4C9B01A8
S11307D0AC01C501B4010E94DB4C4B015C01C55D59
S11307E0DC4FE881F981CB52D34041905190619024
S11307F07190C55DDC4FF983E883CB52D340D801B7
S113080014962D913D914D915C911797C701B601B6
S11308100E943850A30192010E94DB4C9B01AC0161
S1130820CD5DDC4F688179818A819B81C352D3403D
S11308300E94DB4CCD5DDC4F688379838A839B8384
S1130840C352D340085F1F4FC15DDC4FE881F9817B
S1130850CF52D3402E163F0609F092CF80923F022A
S113086090924002A0924102B092420260934302ED
S113087070934402809345029093460280912E0225
S1130880833011F40C94191110F00C941C0F88236C
S113089011F40C944412823009F0A3C0C65CDC4FFE
S11308A09881CA53D340992311F40C94F113A501F0
S11308B09401CD5DDC4F688179818A819B81C3522B
S11308C0D3400E945A4D21EE3EE245E652E40E9496
S11308D038504B015C0121EE3EE245E652E4609162
S11308E0AF027091B0028091B1029091B2020E9465
S11308F038506B017C0120E030E044E353E40E9473
S1130900BD4F181654F420E030E044EB53E4C70123
S1130910B6010E94DA4C6B017C01A7019601C50166
S1130920B4010E94DA4C6B017C0120E030E044E326
S113093053E40E94BD4F181614F00C94E81220E002
S113094030E044EB53E4C701B6010E94DA4C6B017A
S11309507C0120E030E040E05FE3C701B6010E9483
S113096038504B015C0120E030E040E751E40E9444
S1130970BD4F181614F40C94AF1220E030E040E799
S113098051ECC501B4010E94B94D87FF02C00C941B
S11309905414C501B4010E946F4E8B01C501B4010A
S11309A090580E946F4EB62E872F1093F603009333
S11309B0F503B092F7038093F803C701B6019F775C
S11309C020E030E048EC51E40E94BD4F181614F0CA
S11309D00C94A1138B2D0E94132E8091F5030E9479
S11309E0302E0E945425C95DDC4F688379838A8345
S11309F09B83C752D3400E945425C55DDC4F688356
S1130A0079838A839B83CB52D34080913207909120
S1130A103307A0913407B0913507CD5DDC4F88834F
S1130A209983AA83BB83C352D3409C01AD016091D7
S1130A303A0770913B0780913C0790913D070E94D3
S1130A40DA4C6B017C018090360790903707A090B8
S1130A503807B0903907A501940160913E07709161
S1130A603F0780914007909141070E94DA4C9B0117
S1130A70AC010E9438502B013C01A7019601C7012B
S1130A80B6010E9438509B01AC01C301B2010E941F
S1130A90DB4C0E94B3502B013C0120E030E040E0ED
S1130AA05FE3609125027091260280912702909164
S1130AB028020E9438506B017C01F7FAF094F7F891
S1130AC0F094C55DDC4F688179818A819B81CB522A
S1130AD0D34020E137E240E050E00E944451CA0193
S1130AE0B9010E94A54E9B01AC01C701B6010E9449
S1130AF038500E943D4E20E030E04AE753E40E9423
S1130B00385020E030E040E251E40E94DB4C9B018D
S1130B10AC01C301B2010E94DA4C20E030E0A9012B
S1130B200E94BD4F181614F00C94920ECD5DDC4F4C
S1130B30288139814A815B81C352D34020933A078B
S1130B4030933B0740933C0750933D0780923E0708
S1130B5090923F07A0924007B0924107209302046D
S1130B603093030440930404509305048092FE03DD
S1130B709092FF03A0920004B092010480910604B5
S1130B80882349F080913007909131070196909322
S1130B9031078093300780911B0290911C020196CB
S1130BA090931C0280931B028FEF0E940E468FEFDE
S1130BB00E9422468FEF0E9436460E945425C55C4F
S1130BC0DC4F688379838A839B83CB53D3400E9411
S1130BD05425DC01CB01C95DDC4F288139814A8170
S1130BE05B81C752D340821B930BA40BB50B80933C
S1130BF0ED039093EE03A093EF03B093F0030E94F0
S1130C005425DC01CB01C55CDC4F288139814A8144
S1130C105B81CB53D340821B930BA40BB50B84365F
S1130C209940A105B10510F00C947E0E8FEF0E943F
S1130C300E4680E00E94224680E00E943646C15C57
S1130C40DC4F1882CF53D34051E0C65CDC4F58834D
S1130C50CA53D3402FE3622E22E0722E0E94542501
S1130C606B017C010E942A3B0E945425DC01CB01CC
S1130C708C199D09AE09BF098093E5039093E6039F
S1130C80A093E703B093E8038091CC02CB5CDC4FE4
S1130C909881C553D340981709F404CC0E94E245C7
S1130CA00E94E94580910B01816080930B01809142
S1130CB00B01826080930B0180910B01846080930F
S1130CC00B01A39A80910B01806180930B018091A9
S1130CD00B01806280930B0180910B0180648093EF
S1130CE00B0180910B01806880930B018FEF80933F
S1130CF00F0280930E0280930D020E940E46809193
S1130D000E020E94224680910D020E94364680E027
S1130D100E94302E80E00E94132E1092F90210924D
S1130D20BA021092C8020E9454256093C4027093C0
S1130D30C5028093C6029093C70210926402109277
S1130D401C0210921B02A091CC02CB5CDC4FA88346
S1130D50C553D340C65CDC4F1882CA53D340A2CBE0
S1130D600E94DE4510923F0210924002109241020E
S1130D7010924202109243021092440210924502D1
S1130D801092460280912B0290912C02009711F44C
S1130D900C94AB14B2E82B2EBDE03B2E8E010F5FFA
S1130DA01F4FA2EFBBE0C95DDC4FB983A883C752D4
S1130DB0D340E2E6FAE0C55DDC4FF983E883CB5229
S1130DC0D340880F991F880F991F9C012E57324FCB
S1130DD0C15DDC4F39832883CF52D340CD5DDC4FD6
S1130DE0188219821A821B82C352D340812C912CFF
S1130DF05401D101CD90DD90ED90FD901D01F7FAE5
S1130E00F094F7F8F094C95DDC4FE881F981C7529A
S1130E10D3404190519061907190C95DDC4FF9834A
S1130E20E883C752D340D8012D913D914D915C91F7
S1130E30C701B6010E943850A30192010E94DB4C05
S1130E409B01AC01C501B4010E94DB4C4B015C0168
S1130E50C55DDC4FE881F981CB52D340419051907C
S1130E6061907190C55DDC4FF983E883CB52D34028
S1130E70D80114962D913D914D915C911797C7011E
S1130E80B6010E943850A30192010E94DB4C9B01E1
S1130E90AC01CD5DDC4F688179818A819B81C3522D
S1130EA0D3400E94DB4CCD5DDC4F688379838A8319
S1130EB09B83C352D340085F1F4FC15DDC4FE88161
S1130EC0F981CF52D3402E163F0609F092CF80927B
S1130ED03F0290924002A0924102B092420260937B
S1130EE0430270934402809345029093460280919A
S1130EF02E02833011F40C94EE0F08F077C7882388
S1130F0011F40C94AE0F823009F0A3C0C65CDC4F20
S1130F109881CA53D340992311F40C947013A501FA
S1130F209401CD5DDC4F688179818A819B81C352B4
S1130F30D3400E945A4D21EE3EE245E652E40E941F
S1130F4038504B015C0121EE3EE245E652E46091EB
S1130F50AF027091B0028091B1029091B2020E94EE
S1130F6038506B017C0120E030E044E353E40E94FC
S1130F70BD4F181654F420E030E044EB53E4C701AD
S1130F80B6010E94DA4C6B017C01A7019601C501F0
S1130F90B4010E94DA4C6B017C0120E030E044E3B0
S1130FA053E40E94BD4F181614F00C94D01220E0A4
S1130FB030E044EB53E4C701B6010E94DA4C6B0104
S1130FC07C0120E030E040E05FE3C701B6010E940D
S1130FD038504B015C0120E030E040E751E40E94CE
S1130FE0BD4F181614F40C94A81220E030E040E72A
S1130FF051ECC501B4010E94B94D87FF02C00C94A5
S11310004814C501B4010E946F4E8B01C501B4019F
S113101090580E946F4EB62E872F1093F6030093BC
S1131020F503B092F7038093F803C701B6019F77E5
S113103020E030E048EC51E40E94BD4F181614F053
S11310400C94D0138B2D0E94132E8091F5030E94D3
S1131050302E0E945425C95DDC4F688379838A83CE
S11310609B83C752D3400E945425DC01CB01C85B4B
S1131070DC4F288139814A815B81C854D340821B6B
S1131080930BA40BB50B00911D0210911E0220912D
S11310901F023091200280179107A207B30708F4BA
S11310A038C6109237021092380210923902109208
S11310B03A0210923B0210923C0210923D021092AE
S11310C03E0220902B0230902C022114310411F4A2
S11310D00C94C51442E85DE0CD5DDC4F5983488330
S11310E0C352D3408E010F5F1F4F220C331C220CBE
S11310F0331C220C331C200E311EC12CD12C760142
S113110046015701CD5DDC4FA881B981C352D3405C
S11311104D905D906D907D90CD5DDC4FB983A8833B
S1131120C352D340F8012081318142815381C301EC
S1131130B2010E9438509B01AC01C501B4010E9468
S1131140DB4C4B015C01D80114962D913D914D91DE
S11311505C911797C301B2010E9438509B01AC0106
S1131160C701B6010E94DB4C6B017C01085F1F4F75
S11311702016310639F68092370290923802A092F6
S11311803902B0923A0260933B0270933C0280931E
S11311903D0290933E02E894B7F8E894F7F8A7016B
S11311A09601C501B4010E94BD4F2AE037ED43E228
S11311B05CE3181614F40C948D12C701B6010E9456
S11311C03850C55DDC4F688379838A839B83CB5217
S11311D0D340209132073091330740913407509126
S11311E03507CD5DDC4F288339834A835B83C35243
S11311F0D34060913A0770913B0780913C079091EE
S11312003D070E94DA4C4B015C0140903607509038
S113121037076090380770903907A30192016091F5
S11312203E0770913F0780914007909141070E94CB
S1131230DA4C6B017C01A5019401C501B4010E9443
S113124038504B015C01A7019601C701B6010E9409
S113125038509B01AC01C501B4010E94DB4C0E94D3
S1131260B350C55DDC4F288139814A815B81CB5203
S1131270D3400E94DA4C20E030E0A9010E94BD4F27
S1131280181614F00C948612CD5DDC4F8881998178
S1131290AA81BB81C352D34080933A0790933B0702
S11312A0A0933C07B0933D0740923E0750923F07FE
S11312B06092400770924107809302049093030464
S11312C0A0930404B09305044092FE035092FF03DC
S11312D0609200047092010480910604882349F00E
S11312E08091300790913107019690933107809354
S11312F0300780911B0290911C02019690931C026E
S113130080931B028FEF0E940E4680E00E942246CB
S113131080E00E9436460E945425C55CDC4F6883F9
S113132079838A839B83CB53D340C15CDC4F18827F
S1131330CF53D34091E0C65CDC4F9883CA53D3406B
S11313400E945425C85BDC4F688379838A839B831E
S1131350C854D3400E945425DC01CB01C95DDC4F45
S1131360288139814A815B81C752D340821B930B08
S1131370A40BB50B8093ED039093EE03A093EF03BE
S1131380B093F0030E945425DC01CB01C55CDC4F13
S1131390288139814A815B81CB53D340821B930BD3
S11313A0A40BB50B84369940A105B10508F0ABC474
S11313B0C65CDC4F4881CA53D3404111B5C52FE305
S11313C0622E22E0722E4ACC8091C802813009F448
S11313D08FC508F47EC5823009F040CC8091BA02F2
S11313E081113CCC41E04093BA020E94B64036CC15
S11313F08FEF0E940E4680E00E9422468FEF0E94EB
S1131400364680E00E94132E80E00E94302E26CCC7
S1131410F1E0F093F1028091530F813009F01ECC7A
S11314200E94342F1BCC0E94DE450E94E545F30147
S1131430108211821282138220E030E048EC52E4E0
S113144024833583468357838FEF0E940E4680E0C2
S11314500E9422468FEF0E943646F301208131819B
S11314604281538164817581868197810E945A4D9E
S113147021EE3EE245E652E40E9438504B015C0105
S113148021EE3EE245E652E46091AF027091B00273
S11314908091B1029091B2020E9438506B017C019C
S11314A020E030E044E353E40E94BD4F181654F4A6
S11314B020E030E044EB53E4C701B6010E94DA4C6B
S11314C06B017C01A7019601C501B4010E94DA4CAD
S11314D06B017C0120E030E044E353E40E94BD4F03
S11314E018160CF06EC420E030E044EB53E4C7015E
S11314F0B6010E94DA4C6B017C0120E030E040E050
S11315005FE3C701B6010E9438504B015C0120E043
S113151030E040E751E40E94BD4F18160CF44BC470
S113152020E030E040E751ECC501B4010E94B94D20
S113153087FDC8C4C501B4010E946F4E2B01C501CB
S1131540B40190580E946F4E162F5092F6034092A9
S1131550F5031093F7037093F803C701B6019F775F
S113156020E030E048EC51E40E94BD4F18160CF026
S11315708CC4812F0E94132E8091F5030E94302E7B
S11315806DCBC0902B02D0902C02C114D10411F465
S11315900C94CF148E010F5F1F4F7601EE0CFF1CCD
S11315A0EE0CFF1CEE0CFF1CE00EF11EC05BDC4FCA
S11315B088809980AA80BB80C055D340CC5ADC4F28
S11315C0488059806A807B80C455D340D8012D91CE
S11315D03D914D915C91C301B2010E94DB4C2B0102
S11315E03C01F8012481358146815781C501B4014C
S11315F00E94DB4C4B015C01085F1F4F0E151F0559
S113160029F7C05BDC4F688379838A839B83C05549
S1131610D340CC5ADC4F488259826A827B82C455BB
S1131620D340B60180E090E00E94A54E6B017C019E
S1131630C301B201A70196010E94C34DCC5BDC4FEC
S1131640688379838A839B83C454D340A70196011A
S1131650C05BDC4F688179818A819B81C055D3400E
S11316600E94C34DC05CDC4F688379838A839B836B
S1131670C054D34086E080932E020FE2602E02E035
S1131680702EECCA80E00E94132E80E00E94302E5F
S11316908FEF0E940E4680E00E9422468FEF0E9448
S11316A036463FE2632E32E0732ED8CA80E00E94B1
S11316B0132E80E00E94302E0E945425DC01CB01C1
S11316C0C45BDC4F288139814A815B81CC54D3408F
S11316D0821B930BA40BB50B8C329C41A105B10565
S11316E010F00C945B148FE2682E82E0782EB6CA58
S11316F0F801EE0FFF1FEE0FFF1FE55FFB4F208188
S1131700318142815381CC5BDC4F688179818A814C
S11317109B81C454D3400E94DB4CCC5BDC4F688378
S113172079838A839B83C454D340F801EE0FFF1F4F
S1131730EE0FFF1FE556FA4F20813181428153811C
S1131740C05CDC4F688179818A819B81C054D3401D
S11317500E94DB4CC05CDC4F688379838A839B8363
S1131760C054D34082E080932E020E945425DC01B1
S1131770CB01C95DDC4F288139814A815B81C75225
S1131780D340821B930BA40BB50B8093ED03909372
S1131790EE03A093EF03B093F0031FE2612E12E077
S11317A0712E5CCA8FEF0E940E468FEF0E94224674
S11317B080E00E94364680902F0290903002A090E4
S11317C03102B09032026091330270913402809100
S11317D03502909136029B01AC010E9438506B0196
S11317E07C01A5019401C501B4010E9438509B01FC
S11317F0AC01C701B6010E94DB4C0E94B35020919A
S113180021023091220240912302509124020E942D
S113181038508B01F82EE92ECB01AF2DBE2D8093CD
S1131820070490930804A0930904B0930A04D09089
S11318301502C0901602B0901702A09018022D2D28
S11318403C2D4B2D5A2DB8018F2D9E2D0E94BD4F3E
S113185018160CF004C78D2D9C2DAB2DBA2D80933A
S1131860070490930804A0930904B0930A046D2D0F
S11318707C2D8B2D9A2D0E946F4E7093F8036093EC
S1131880F7037093F6036093F5036D2D7C2D8B2D78
S11318909A2D0E946F4E862F0E94132E2091F903D9
S11318A03091FA034091FB035091FC0360910704CB
S11318B0709108048091090490910A040E94DA4C02
S11318C00E946F4E862F0E94302E0E945425409015
S11318D02C0750902D0760902E0770902F072091B1
S11318E02F023091300240913102509132026091C6
S11318F033027091340280913502909136020E9435
S11319005A4D21EE3EE245E652E40E9438504B0126
S11319105C0121EE3EE245E652E4C301B2010E94BD
S113192038506B017C0120E030E044E353E40E9432
S1131930BD4F181654F420E030E044EB53E4C701E3
S1131940B6010E94DA4C6B017C01A7019601C50126
S1131950B4010E94DA4C6B017C0120E030E044E3E6
S113196053E40E94BD4F18160CF064C620E030E02A
S113197044EB53E4C701B6010E94DA4C6B017C01CD
S113198020E030E040E05FE3C701B6010E94385038
S11319904B015C0120E030E040E751E40E94BD4F80
S11319A018160CF442C620E030E040E751ECC501C3
S11319B0B4010E94B94D87FDC3C7C501B4010E949B
S11319C06F4E8B01C501B40190580E946F4E109365
S11319D0F6030093F5037093F8036093F703C701CC
S11319E0B6019F7720E030E048EC51E40E94BD4FFF
S11319F018160CF03BC782E080932E024092AF028F
S1131A005092B0026092B1027092B20260911902D7
S1131A1070911A02072E000C880B990B0E94A74E96
S1131A206B017C01CC5BDC4F288139814A815B816D
S1131A30C454D340609132077091330780913407C6
S1131A40909135070E94DA4C9F77A70196010E9476
S1131A50B94D87FF48CEC05CDC4F288139814A816B
S1131A605B81C054D34060913607709137078091F1
S1131A703807909139070E94DA4C9B01AC015F77DB
S1131A80C701B6010E94BD4F18160CF02CCE34E0ED
S1131A9030932E02EFE26E2EE2E07E2EDFC88FEF4F
S1131AA00E940E4680E00E9422468FEF0E94364636
S1131AB080E00E94132E80E00E94302E8091FD036E
S1131AC0882309F410CE0E9454250091C402109179
S1131AD0C5022091C6023091C702DC01CB01801BF4
S1131AE0910BA20BB30B8E319B44A105B10508F4F5
S1131AF0FACD85E080932E020E945425C95DDC4F07
S1131B00688379838A839B83C752D3409FE2692E7B
S1131B1092E0792EA3C8C65CDC4F4881CA53D340F7
S1131B20442309F4D3C6A5019401C701B6010E9458
S1131B305A4D21EE3EE245E652E40E9438504B01F4
S1131B405C0121EE3EE245E652E46091AF02709101
S1131B50B0028091B1029091B2020E9438506B01A0
S1131B607C0120E030E044E353E40E94BD4F1816AA
S1131B7054F420E030E044EB53E4C701B6010E9482
S1131B80DA4C6B017C01A7019601C501B4010E94E6
S1131B90DA4C6B017C0120E030E044E353E40E9422
S1131BA0BD4F18160CF065C520E030E044EB53E45B
S1131BB0C701B6010E94DA4C6B017C0120E030E0E1
S1131BC040E05FE3C701B6010E9438504B015C015D
S1131BD020E030E040E751E40E94BD4F18160CF4B9
S1131BE042C520E030E040E751ECC501B4010E9459
S1131BF0B94D87FDAAC6C501B4010E946F4E8B0181
S1131C00C501B40190580E946F4EB62E872F1093D1
S1131C10F6030093F503B092F7038093F803C7012A
S1131C20B6019F7720E030E048EC51E40E94BD4FBC
S1131C3018160CF065C68B2D0E94132E8091F503A7
S1131C400E94302E6091190270911A02072E000C26
S1131C50880B990B0E94A74E6B017C01CC5BDC4F77
S1131C60288139814A815B81C454D3406091320711
S1131C707091330780913407909135070E94DA4CB4
S1131C809F77A70196010E94B94D87FF2CCDC05CB8
S1131C90DC4F288139814A815B81C054D3406091F3
S1131CA036077091370780913807909139070E9461
S1131CB0DA4C9B01AC015F77C701B6010E94BD4FAE
S1131CC018160CF010CD84E080932E025FE2652E8E
S1131CD052E0752E0C942E0610922B070C94B80229
S1131CE00E945D250E945425CA5CDC4F6883798379
S1131CF08A839B83C653D3400C94A902C15CDC4FF6
S1131D001882CF53D340C65CDC4F1882CA53D340E9
S1131D1056CBC15CDC4F3881CF53D340332309F415
S1131D2019CBBFC9C15CDC4F9881CF53D34091110B
S1131D300C9496050E945425DC01CB01C95DDC4F4F
S1131D40288139814A815B81C752D340821B930B1E
S1131D50A40BB50B8093ED039093EE03A093EF03D4
S1131D60B093F0030E945425DC01CB01C55CDC4F29
S1131D70288139814A815B81CB53D340821B930BE9
S1131D80A40BB50B84369940A105B10508F0BBCF6F
S1131D90C65CDC4F4881CA53D34041110C941606EB
S1131DA0C15CDC4F4883CF53D3409FE3692E92E05C
S1131DB0792E0C942E0611EF7FEF4FE0442E512C18
S1131DC0C4CB20E030E044E353ECC701B6010E94E9
S1131DD0B94D87FF92CB20E030E044EB53E4C701D8
S1131DE0B6010E94DB4C6B017C0187CB843009F483
S1131DF082C3873009F02DC980E00E94132E80E051
S1131E000E94302E0E945425DC01CB01C45BDC4FC0
S1131E10288139814A815B81CC54D340821B930B46
S1131E20A40BB50B8C329C41A105B10508F411C972
S1131E3043E040932E020DC9843009F484C08730F6
S1131E4011F00C94F10480E00E94132E80E00E94B3
S1131E50302E0E945425DC01CB01C45BDC4F288169
S1131E6039814A815B81CC54D340821B930BA40BF0
S1131E70B50B8C329C41A105B10510F40C94F1040E
S1131E8043E040932E020C94F104109247020E9406
S1131E905425609348027093490280934A029093B8
S1131EA04B0282E30E94132E82E30E94302E8FEFB6
S1131EB00E940E468FEF0E94224680E00E94364622
S1131EC00C942E061FE070E031EF432E55245A94F3
S1131ED03CCB0E9454256093C4027093C502809346
S1131EE0C6029093C70221E02093C8020C942E06E8
S1131EF00E9454250091C4021091C5022091C6028B
S1131F003091C702DC01CB01801B910BA20BB30BF8
S1131F108E319B44A105B10510F40C942E0682E089
S1131F208093C8020C942E068FEF0E940E4680E028
S1131F300E94224680E00E9436467FE3672E72E0CC
S1131F40772E0C942E0680E00E940E4680E00E94BC
S1131F5022468FEF0E9436460C94F1048FEF0E94C4
S1131F600E4680E00E9422468FEF0E94364680E0B3
S1131F700E94132E80E00E94302E8091FD0388235E
S1131F8009F467C80E9454250091C4021091C50247
S1131F902091C6023091C702DC01CB01801B910B5A
S1131FA0A20BB30B8E319B44A105B10508F451C8B3
S1131FB082E080932E020E945425C95DDC4F688321
S1131FC079838A839B83C752D3400E94542541E07E
S1131FD0C15CDC4F4883CF53D34063C8C65CDC4F3D
S1131FE05881CA53D340552309F458C3CD5DDC4FFF
S1131FF0288139814A815B81C352D340CA01B90126
S11320000E9438506B017C01A5019401C501B40103
S11320100E9438509B01AC01C701B6010E94DB4C01
S11320200E94B35020912102309122024091230258
S1132030509124020E9438508B01F82EE92ECB01D6
S1132040AF2DBE2D8093070490930804A093090438
S1132050B0930A04D0901502C0901602B0901702F3
S1132060A09018022D2D3C2D4B2D5A2DB8018F2DEB
S11320709E2D0E94BD4F18160CF066C28D2D9C2D0E
S1132080AB2DBA2D8093070490930804A093090400
S1132090B0930A046D2D7C2D8B2D9A2D0E946F4ECA
S11320A07093F8036093F7037093F6036093F5035A
S11320B06D2D7C2D8B2D9A2D0E946F4E862F0E94A4
S11320C0132E2091F9033091FA034091FB035091B0
S11320D0FC036091070470910804809109049091B5
S11320E00A040E94DA4C0E946F4E862F0E94302E02
S11320F040902C0750902D0760902E0770902F076A
S113210020913F023091400240914102509142029D
S1132110609143027091440280914502909146027D
S11321200E945A4D21EE3EE245E652E40E943850A8
S11321304B015C0121EE3EE245E652E4C301B201EB
S11321400E9438506B017C0120E030E044E353E40A
S11321500E94BD4F181654F420E030E044EB53E4E1
S1132160C701B6010E94DA4C6B017C01A7019601FC
S1132170C501B4010E94DA4C6B017C0120E030E01F
S113218044E353E40E94BD4F18160CF0F4C120E060
S113219030E044EB53E4C701B6010E94DA4C6B0112
S11321A07C0120E030E040E05FE3C701B6010E941B
S11321B038504B015C0120E030E040E751E40E94DC
S11321C0BD4F18160CF4D2C120E030E040E751ECCA
S11321D0C501B4010E94B94D87FD61C3C501B401B5
S11321E00E946F4E8B01C501B40190580E946F4E3E
S11321F01093F6030093F5037093F8036093F703C9
S1132200C701B6019F7720E030E048EC51E40E941A
S1132210BD4F18160CF087C282E080932E024092C4
S1132220AF025092B0026092B1027092B2020C946A
S11322302908C65CDC4F5881CA53D340552309F49E
S1132240F3C2CD5DDC4F288139814A815B81C35261
S1132250D340CA01B9010E9438506B017C01A50129
S11322609401C501B4010E9438509B01AC01C7011F
S1132270B6010E94DB4C0E94B350209121023091A0
S1132280220240912302509124020E9438508B0173
S1132290F82EE92ECB01AF2DBE2D80930704909329
S11322A00804A0930904B0930A04D0901502C090C6
S11322B01602B0901702A09018022D2D3C2D4B2D24
S11322C05A2DB8018F2D9E2D0E94BD4F18160CF06B
S11322D032C18D2D9C2DAB2DBA2D80930704909384
S11322E00804A0930904B0930A046D2D7C2D8B2D52
S11322F09A2D0E946F4E7093F8036093F7037093C6
S1132300F6036093F5036D2D7C2D8B2D9A2D0E9481
S11323106F4E862F0E94132E2091F9033091FA03F9
S11323204091FB035091FC036091070470910804F1
S11323308091090490910A040E94DA4C0E946F4E25
S1132340862F0E94302E40902C0750902D076090CD
S11323502E0770902F0720913F0230914002409148
S11323604102509142026091430270914402809173
S11323704502909146020E945A4D21EE3EE245E606
S113238052E40E9438504B015C0121EE3EE245E6E6
S113239052E4C301B2010E9438506B017C0120E079
S11323A030E044E353E40E94BD4F181654F420E097
S11323B030E044EB53E4C701B6010E94DA4C6B01F0
S11323C07C01A7019601C501B4010E94DA4C6B019E
S11323D07C0120E030E044E353E40E94BD4F181632
S11323E00CF00EC120E030E044EB53E4C701B60129
S11323F00E94DA4C6B017C0120E030E040E05FE3B6
S1132400C701B6010E9438504B015C0120E030E066
S113241040E751E40E94BD4F18160CF490C020E030
S113242030E040E751ECC501B4010E94B94D87FD8D
S11324302AC2C501B4010E946F4E8B01C501B401CB
S113244090580E946F4E1093F6030093F503709317
S1132450F8036093F703C701B6019F7720E030E0EB
S113246048EC51E40E94BD4F18160CF08BC182E079
S113247080932E024092AF025092B0026092B10259
S11324807092B2020C94F1048FEF0E940E4680E029
S11324900E9422468FEF0E94364680E00E94132E4F
S11324A080E00E94302E8091FD03882311F40C9467
S11324B0F1040E9454250091C4021091C502209198
S11324C0C6023091C702DC01CB01801B910BA20B29
S11324D0B30B8E319B44A105B10510F40C94F104A7
S11324E082E080932E0241E0C15CDC4F4883CF53ED
S11324F0D3400C94F10480E00E940E4680E00E94D8
S113250022468FEF0E9436460C942908C65CDC4FA5
S11325101882CA53D3400C94A009C501B4010E9487
S11325203850C55DDC4F688379838A839B83CB52A3
S1132530D3400C94E908D02EC12E5701D6CE61EFBA
S11325407FEF0FE010E07FCFD02EC12E5701A2CD38
S1132550A1EFBA2E8FEF0FE010E00C940D0841EFBD
S1132560B42E8FEF0FE010E00C94D50461EF7FEFF1
S11325700FE010E03DCE20E030E044E353ECC7012F
S1132580B6010E94B94D87FF0CCE20E030E044EB49
S113259053E4C701B6010E94DB4C6B017C0101CE00
S11325A020E030E044E353ECC701B6010E94B94D8A
S11325B087FD02C00C94E10720E030E044EB53E4D3
S11325C0C701B6010E94DB4C6B017C010C94E1074E
S11325D020E030E044E353ECC701B6010E94B94D5A
S11325E087FD02C00C94A90420E030E044EB53E4DE
S11325F0C701B6010E94DB4C6B017C010C94A90459
S113260020E030E044E353ECC701B6010E94B94D29
S113261087FFF2CE20E030E044EB53E4C701B6017B
S11326200E94DB4C6B017C01E7CE61EF7FEF0FE092
S113263010E0CDC920E030E044E353ECC701B6011B
S11326400E94B94D87FF9CC920E030E044EB53E47D
S1132650C701B6010E94DB4C6B017C0191C9D02EED
S1132660C12E570104C971EFB72E8FEF0FE010E0B0
S1132670CECA20E030E044E353ECC701B6010E9427
S1132680B94D87FF9BCA20E030E044EB53E4C70117
S1132690B6010E94DB4C6B017C0190CA8FEF0E9453
S11326A00E468FEF0E94224680E00E9436468090BC
S11326B03F0290904002A0904102B090420280916B
S11326C0430290914402A0914502B0914602CD5D2F
S11326D0DC4F88839983AA83BB83C352D34086CCBF
S11326E080E00E940E468FEF0E9422468FEF0E94E8
S11326F0364680903F0290904002A0904102B090F4
S1132700420220914302309144024091450250918B
S11327104602CD5DDC4F288339834A835B83C352F1
S1132720D3400C948F07109247020E945425609363
S113273048027093490280934A0290934B020C948E
S11327402908109247020E9454256093480270930E
S1132750490280934A0290934B0237E030932E0251
S11327600E945425C45BDC4F688379838A839B83EE
S1132770CC54D3408AE00E94132E8AE00E94302E6B
S11327800C94F104109247020E945425609348026D
S11327907093490280934A0290934B020C94F10483
S11327A0109247020E945425609348027093490294
S11327B080934A0290934B0237E030932E020E949A
S11327C05425C45BDC4F688379838A839B83CC5410
S11327D0D3408AE00E94132E8AE00E94302E0C948B
S11327E0290880E00E940E468FEF0E9422468FEF58
S11327F00E94364680903F0290904002A090410291
S1132800B09042022091430230914402409145022B
S113281050914602CD5DDC4F288339834A835B8324
S1132820C352D3400C9457048FEF0E940E468FEF8F
S11328300E94224680E00E94364680903F0290909B
S11328404002A0904102B0904202809143029091D4
S11328504402A0914502B0914602CD5DDC4F8883CD
S11328609983AA83BB83C352D340EBCC1092470213
S11328700E945425609348027093490280934A024F
S113288090934B02C3C86FE070E001EF1FEFDBCD04
S1132890FFE0BF2E80E001EF1FEF0C940D086FE006
S11328A070E001EF1FEFA4CC3FE0B32E80E001EF16
S11328B01FEF0C94D50443E040932E020E9454254C
S11328C04FE2642E42E0742E0C942E0680E00E94A7
S11328D00E468FEF0E9422468FEF0E94364680906C
S11328E02F0290903002A0903102B0903202C0903A
S11328F03302D0903402E0903502F090360213C9CE
S1132900109247020E945425609348027093490232
S113291080934A0290934B0257E050932E020E94F8
S11329205425C45BDC4F688379838A839B83CC54AE
S1132930D34080E00E94132E80E00E94302E82C992
S11329406FE070E001EF1FEF42C86FE0B62E80E049
S113295001EF1FEF5CC9CD5DDC4F188219821A822A
S11329601B82C352D340812C912C54010C947707C1
S1132970CD5DDC4F188219821A821B82C352D34068
S1132980812C912C54010C943E04C55DDC4F1882BB
S113299019821A821B82CB52D3400C94E908C12CB1
S11329A0D12C7601CC5ADC4F688179818A819B8154
S11329B0C455D3400C941A0B84B1807F84B984B17C
S11329C0876084B980E58CBD8DB581608DBD089527
S11329D04423F9F0FC01DB014150242F30E02F5F48
S11329E03F4F280F391F41E081918EBD80E090E078
S11329F00196803157E2950768F40DB407FEF8CFCD
S1132A008091FB02811105C08EB58D93E217F30707
S1132A1059F708954093FB020DB407FEE9CF0895DA
S1132A206623E1F0FC016150262F30E02F5F3F4F19
S1132A30280F391F41E081918EBD80E090E001961E
S1132A40803157E2950758F40DB407FEF8CF809112
S1132A50FB02811103C0E217F30769F7089540935D
S1132A60FB020DB407FEEBCF08958EBD81E090E02C
S1132A7021E005C00196803137E2930728F40DB4B4
S1132A8007FEF8CF8EB508952093FB02F8CFCF93BD
S1132A90DF9300D0CDB7DEB7289880E20E943515C9
S1132AA08DE00E943515289A289883E20E943515F6
S1132AB081E00E943515289A8091FD029091FE02D2
S1132AC099838A831B82289880E30E94351563E0EA
S1132AD0CE0101960E941015289A28988AE20E9435
S1132AE0351563E0CE0101960E941015289A2898A6
S1132AF081E20E94351581E00E943515289A2898B4
S1132B0082E20E94351581E00E943515289A2898A2
S1132B1084E20E94351582E10E943515289A28988E
S1132B2085E20E94351588E20E943515289A289876
S1132B3081E30E9435158DE00E943515289A289866
S1132B4080E50E94351583E70E943515289A289858
S1132B508CE30E94351581E00E943515289A289847
S1132B608DE30E94351586E00E943515289A289831
S1132B7080E20E9435158FE00E943515289A0F9047
S1132B800F900F90DF91CF9108952C9A289A0C946E
S1132B9047154F925F926F927F928F929F92AF925E
S1132BA0BF92CF92DF92EF92FF920F931F93CF9336
S1132BB0DF931F92CDB7DEB78091120F882399F06F
S1132BC080E00F90DF91CF911F910F91FF90EF90D4
S1132BD0DF90CF90BF90AF909F908F907F906F9039
S1132BE05F904F90089528988FEF0E943515289A8A
S1132BF086FFE6CF8091FC0282608093FC022898D5
S1132C0087E20E94351580E70E943515289A1982BB
S1132C10289887E10E94351541E0BE016F5F7F4F20
S1132C20CB010E94E814289A898180FDCACF289894
S1132C3081E60E9435154DE06FE673E1CB010E94F9
S1132C40E814289A289887E20E94351580E40E94A7
S1132C503515289A289882EE0E943515289A809175
S1132C60FA02813009F43CC41091721317FD81C239
S1132C7000917313F0907113E090701360917013CE
S1132C8070917113072E000C880B990B0E94A74EAC
S1132C9020E030E44FE054E40E94C34D60932C07DD
S1132CA070932D0780932E0790932F078091530FD5
S1132CB0811120C02E2D2F7730E030930003209314
S1132CC0FF028F2D8F7790E090930203809301038E
S1132CD0E7FC03C031952195310930931A03209301
S1132CE01903F7FC03C091958195910990931803FA
S1132CF08093170316FF72C181E08093FD036091F6
S1132D00741370917513072E000C880B990B0E9495
S1132D10A74E6B017C016093320770933307809355
S1132D203407909335076091761370917713072ECB
S1132D30000C880B990B0E94A74E2B013C01609359
S1132D40360770933707809338079093390714FF39
S1132D5029C010E0000F111F000F111F98012E52FF
S1132D60374F59016091781370917913072E000C35
S1132D70880B990B0E94A74EF501608371838283AF
S1132D8093830E5B184F60917A1370917B13072E17
S1132D90000C880B990B0E94A74EF8016083718385
S1132DA08283938380916F1380FF13C081E08093AB
S1132DB00604C092A702D092A802E092A902F0925F
S1132DC0AA024092A3025092A4026092A5027092B9
S1132DD0A6021091CC02123009F4AEC18091100207
S1132DE08093A712853009F480C208F048C083306C
S1132DF009F4F7C0843009F048C190919F03809191
S1132E00A0039093A8128093A9129091A703809194
S1132E10A8039093AA128093AB129091A903809176
S1132E20AA039093AC128093AD129091AB0380915E
S1132E30AC039093AE128093AF129091AD03809146
S1132E40AE039093B0128093B1129091E9028091F5
S1132E50EA029093B2128093B3129091E7028091A8
S1132E60E8029093B4128093B5128091F402809397
S1132E70B61285E08093100210912B077FC0863034
S1132E8009F406C1873009F000C1C090AF02D090A8
S1132E90B002E090B102F090B202C092AB02D092C4
S1132EA0AC02E092AD02F092AE0260910204709125
S1132EB0030480910404909105040E94764E60936B
S1132EC0A8127093A9126091FE037091FF03809180
S1132ED00004909101040E94764E6093AA127093AC
S1132EE0AB1290911B0280911C029093AC128093C0
S1132EF0AD1210912B071093AE12E0912902F091BC
S1132F002A02EE0FFF1FEE0FFF1FEE5BF84F6081EA
S1132F107181828193810E94764E6093AF1220E08A
S1132F2030E44FE054E4C701B6010E9438500E94D7
S1132F306F4E6093B0127093B1126091A7027091BA
S1132F40A8028091A9029091AA020E94764E6093F1
S1132F50B2127093B3126091A3027091A402809193
S1132F60A5029091A6020E94764E6093B4127093CB
S1132F70B5121092B61286E080931002111114C09B
S1132F8080916F1381FF10C080912C0790912D07C1
S1132F90A0912E07B0912F078093AF029093B002B7
S1132FA0A093B102B093B202289881EE0E94351525
S1132FB0289A289888EA0E94351507EA12E187EBD7
S1132FC0E82E82E1F82EF80181918F010E943515D7
S1132FD0E016F106C1F7289A81E0F3CD1092FD03C3
S1132FE08ECE90919703809198039093A81280932A
S1132FF0A9129091990380919A039093AA128093B5
S1133000AB1290919B0380919C039093AC1280939C
S1133010AD1290919D0380919E039093AE12809384
S1133020AF129091A1038091A2039093B012809368
S1133030B1129091A3038091A4039093B212809350
S1133040B3129091A5038091A6039093B412809338
S1133050B51280910301309103012091030184FB97
S1133060992790F9822F881F8827881F880F880F37
S1133070892B35FB882480F8912C880C991C882A8C
S11330808092B61284E08093100210912B0776CFC1
S11330903091F1032091F2039091F3038091F403B2
S11330A03093A8122093A9129093AA128093AB1282
S11330B09091E9038091EA039093AC128093AD124E
S11330C090913007809131079093AE128093AF12A4
S11330D09091FF02809100039093B0128093B112FB
S11330E000912B0210912C0202501109000F111FA4
S11330F0000F111FF801EE5BF84F6081718182812E
S113310093810E94764E6093B2127093B312F801C9
S1133110EE52F74F60817181828193810E94764ED5
S11331206093B4127093B5121092B61287E0809334
S1133130100210912B0722CF8091530F81114ECE94
S11331408091761380FF4ACE0E94A6478FEF93E0CA
S11331509093A8038093A7039093AE038093AD0349
S113316086E08093461581E08093A0128093530FEC
S113317035CE012F0F70107509F009C10111C5C1B9
S113318000916F1310E010932A020093290280919A
S1133190731390E090932C0280932B026091701330
S11331A070917113072E000C880B990B0E94A74E87
S11331B020E030E44FE054E40E94C34D60932C07B8
S11331C070932D0780932E0790932F076093AF027F
S11331D07093B0028093B1029093B2026091741321
S11331E070917513072E000C880B990B0E94A74E43
S11331F02B013C01000F111F000F111FF801EE52AB
S1133200F74F608371838283938360917613709107
S11332107713072E000C880B990B0E94A74E6B01A5
S11332207C01F801EE5BF84F6083718382839383A2
S1133230809178139091791390931A0280931902D4
S113324060917A1370917B13072E000C880B990BF5
S11332500E94A74E60931502709316028093170282
S11332609093180240920204509203046092040462
S113327070920504C092FE03D092FF03E092000412
S1133280F09201044092A7025092A8026092A9020F
S11332907092AA02C092A302D092A402E092A50264
S11332A0F092A6024092320750923307609234079C
S11332B070923507C0923607D0923707E0923807EC
S11332C0F092390740923A0750923B0760923C07CC
S11332D070923D07C0923E07D0923F07E0924007AC
S11332E0F09241071091CC0276CD8091F503909134
S11332F0F60397FD9EC1992780684091ED033091B4
S1133300EE032091EF039091F0034093A8123093C1
S1133310A9122093AA129093AB124091E503309125
S1133320E6032091E7039091E8034093AC123093B5
S1133330AD122093AE129093AF128093B0121091FD
S11333402B071093B11220E030E44FE054E4609175
S11333502C0770912D0780912E0790912F070E94C2
S113336038500E946F4E6093B2127093B3129091D2
S11333703007809131079093B4128093B5128091F5
S1133380CC028093B61286E080931002F7CD103100
S113339009F454C1103409F4D8C1103509F019CD19
S11333A0F5E00F9F700111241091CC0284EF810F7E
S11333B0823008F4E3C2C701880F991F880F991F50
S11333C09C0125563A4F690160916F1370917013F7
S11333D0072E000C880B990B0E94A74EF601608300
S11333E0718382839383C701880F991F880F991F64
S11333F09C0121563A4F69016091731370E0762F56
S1133400662780917113682B072E000C880B990B8B
S11334100E94A74EF6016083718382839383C70160
S1133420880F991F880F991F9C012D553A4F6901E8
S11334306091741370917513072E000C880B990B0F
S11334400E94A74EF6016083718382839383C70130
S1133450880F991F880F991F9C0129553A4F6901BC
S11334606091761370917713072E000C880B990BDB
S11334700E94A74EF6016083718382839383C70100
S1133480880F991F880F991F9C0125553A4F690190
S11334906091781370917913072E000C880B990BA7
S11334A00E94A74EF6016083718382839383C701D0
S11334B0880F991F880F991F9C0121553A4F790154
S11334C060917A1370917B13072E000C880B990B73
S11334D00E94A74EF70160837183828393837BCC20
S11334E0289881EE0E943515289A289888EA0E9427
S11334F0351507EA12E1F80181918F010E94351513
S1133500F2E1073B1F07B9F766CD802F90E08C01ED
S1133510000F111F080F191F780123E0E21AF108A8
S1133520EE0CFF1CEE0CFF1CC7018E52974F6C0172
S113353060916F1370917013072E000C880B990B18
S11335400E94A74EF601608371838283938397015F
S11335502E5B384F79016091731370E0762F6627E4
S113356080917113682B072E000C880B990B0E9415
S1133570A74EF70160837183828393837801F2E01D
S1133580EF1AF108EE0CFF1CEE0CFF1C97012E52F3
S1133590374F69016091741370917513072E000CF5
S11335A0880B990B0E94A74EF60160837183828376
S11335B0938397012E5B384F790160917613709154
S11335C07713072E000C880B990B0E94A74EF70166
S11335D0608371838283938301501109000F111F4B
S11335E0000F111F98012E52374F79016091781303
S11335F070917913072E000C880B990B0E94A74E2B
S1133600F70160837183828393830E5B184F60910B
S11336107A1370917B13072E000C880B990B0E9470
S1133620A74EF80160837183828393831091CC0247
S1133630D2CB91958195910999275FCEF5E00F9FA3
S113364080011124C801880F991F880F991F9C01BC
S11336502E57324F790160916F1370917013072EBA
S1133660000C880B990B0E94A74EF70160837183AD
S113367082839383C801880F991F880F991F9C0127
S11336802A57324F79016091731370E0762F6627C1
S113369080917113682B072E000C880B990B0E94E4
S11336A0A74EF7016083718382839383C801880FD7
S11336B0991F880F991F9C012657324F79016091F9
S11336C0741370917513072E000C880B990B0E94CC
S11336D0A74EF7016083718382839383C801880FA7
S11336E0991F880F991F9C012257324F79016091CD
S11336F0761370917713072E000C880B990B0E9498
S1133700A74EF7016083718382839383C801880F76
S1133710991F880F991F9C012E56324F7901609191
S1133720781370917913072E000C880B990B0E9463
S1133730A74EF7016083718382839383000F111F67
S1133740000F111F0A56124F62CFF5E00F9F700150
S113375011241091CC0284EF810F823008F485C0CB
S1133760C701880F991F880F991F9C01255F3B4F44
S1133770690160916F1370917013072E000C880B10
S1133780990B0E94A74EF601608371838283938311
S1133790C701880F991F880F991F9C01215F3B4F18
S11337A069016091731370E0762F6627809171131D
S11337B0682B072E000C880B990B0E94A74EF6016C
S11337C06083718382839383C701880F991F880F55
S11337D0991F9C012D5E3B4F690160917413709198
S11337E07513072E000C880B990B0E94A74EF60147
S11337F06083718382839383C701880F991F880F25
S1133800991F9C01295E3B4F690160917613709169
S11338107713072E000C880B990B0E94A74EF60114
S11338206083718382839383C701880F991F880FF4
S1133830991F9C01255E3B4F69016091781370913B
S11338407913072E000C880B990B0E94A74EF601E2
S11338506083718382839383C701880F991F880FC4
S1133860991F9C01215E3B4F2ACE8701000F111F37
S1133870000F111F0E50144F60916F13709170134D
S1133880072E000C880B990B0E94A74EF801608349
S11338907183828393838701000F111F000F111F0F
S11338A00A50144F6091731370E0762F662780914D
S11338B07113682B072E000C880B990B0E94A74EDE
S11338C0F80160837183828393838701000F111F42
S11338D0000F111F0650144F6091741370917513EB
S11338E0072E000C880B990B0E94A74EF8016083E9
S11338F07183828393838701000F111F000F111FAF
S11339000250144F6091761370917713072E000CB8
S1133910880B990B0E94A74EF80160837183828300
S113392093838701000F111F000F111F0E5F134FA8
S11339306091781370917913072E000C880B990B02
S11339400E94A74EF8016083718382839383870169
S1133950000F111F000F111F0A5F134F60917A139C
S113396070917B13072E000C880B990B0E94A74EB5
S1133970F801608371838283938330CA8701000FC7
S1133980111F000F111F0E59154F60916F13709185
S11339907013072E000C880B990B0E94A74EF80198
S11339A060837183828393838701000F111F000F4B
S11339B0111F0A59154F6091731370E0762F662713
S11339C080917113682B072E000C880B990B0E94B1
S11339D0A74EF80160837183828393838701000F6C
S11339E0111F000F111F0659154F60917413709128
S11339F07513072E000C880B990B0E94A74EF80133
S1133A0060837183828393838701000F111F000FEA
S1133A10111F0259154F6091761370917713072E79
S1133A20000C880B990B0E94A74EF80160837183E8
S1133A30828393838701000F111F000F111F0E58FB
S1133A40154F6091781370917913072E000C880B31
S1133A50990B0E94A74EF80160837183828393833C
S1133A608701000F111F000F111F0A58154F76CF41
S1133A70CF93DF93C8E6D0E01882ACE6B0E01C92A6
S1133A80E0EBF0E010821092B10010927000888197
S1133A90826088838C9180688C938081826080832B
S1133AA0DF91CF9108951F920F920FB60F921124B8
S1133AB08F938091F102882321F18091030186FD87
S1133AC020C0809168008D7F8093680080916C0095
S1133AD08F7780936C0081E080930B028DE080935C
S1133AE0B3008091B10086608093B1008091700032
S1133AF082608093700010924F02109250021092D4
S1133B004E028F910F900FBE0F901F9018951F9229
S1133B100F920FB60F9211242F933F934F935F93FD
S1133B206F937F938F939F938091B100887F80934D
S1133B30B10080910B02882369F18091030186FD15
S1133B4068C010920B0283E38093B3008091B100AC
S1133B5086608093B10080917000826080937000D1
S1133B6080910402909105028F3F2FEF920729F074
S1133B70019690930502809304029F918F917F9107
S1133B806F915F914F913F912F910F900FBE0F90C6
S1133B901F90189580910402909105028F3F4FEF7A
S1133BA0940709F447C08130910509F47AC0AC0147
S1133BB0425051094530510508F44FC09C0127502B
S1133BC031092630310508F08BC086E38093B300B9
S1133BD08091B10086608093B10080917000826012
S1133BE0809370002091030180910402909105025A
S1133BF026FB662760F92CE030E0281B390B01C056
S1133C00660F2A95EAF720914F02620F60934F02E4
S1133C10ABCF8091680082608093680080916C00D3
S1133C20806880936C008FEF9FEF909305028093E0
S1133C300402A3CF2091030126FF3CC02091680019
S1133C4022602093680020916C00206820936C000F
S1133C50909305028093040290CF86E38093B3008F
S1133C608091B10086608093B10080917000826081
S1133C7080937000409103018091040290910502A9
S1133C8046FB222720F946E050E0481B590B01C0AF
S1133C90220F4A95EAF730915002230F20935002E5
S1133CA063CF8091030186FB882780F980934E02BD
S1133CB086E34ACF8CE18093B3008091B1008660A3
S1133CC08093B100809170008260809370001092A4
S1133CD04F021092500210924E0281E090E049CFC0
S1133CE08D30910509F044CF1092700080916800E6
S1133CF082608093680080916C00806880936C007F
S1133D008FEF9FEF909305028093040280914E02FF
S1133D10809306028091500280934D0280914F025D
S1133D2080934C0281E08093F30227CF0F931F937B
S1133D308091F102882321F08091F302811103C064
S1133D401F910F9108951092F3020E94542500913F
S1133D50EC021091ED022091EE023091EF02DC01B1
S1133D60CB01801B910BA20BB30B83389740A105A9
S1133D70B10530F30E9454256093EC027093ED0278
S1133D808093EE029093EF0280914C028093F402B0
S1133D9090E085339105C0F08091190390911A0346
S1133DA0209117033091180397FD90C0909300035E
S1133DB08093FF0237FF03C0319521953109309379
S1133DC0020320930103BCCFFC018827E757FF4F70
S1133DD08F4F0C9485518091F00290E0019683708E
S1133DE099278093F002823099F0833009F4A2C1BC
S1133DF0813009F4ADC11092B5021092B4028091E1
S1133E00190390911A032091170330911803CCCF12
S1133E101092B50281E08093B402809119039091CD
S1133E201A032091170330911803BECF1092B502E4
S1133E308091190390911A0320911703309118036C
S1133E40B3CF2091170330911803225031093093D6
S1133E5018032093170321388FEF38070CF048C15B
S1133E6081E89FEF909318038093170380911903BF
S1133E7090911A0321E83FEF97CF80911903909115
S1133E801A0320911B0330911C038217930724F01B
S1133E908091170390911803029790931A038093CB
S1133EA01903909318038093170381384FEF9407F5
S1133EB00CF023C181E89FEF90931A0380931903B8
S1133EC0909318038093170321E83FEF9195819510
S1133ED091096CCF81E08093B50280911903909190
S1133EE01A0320911703309118035ECF80911903B0
S1133EF090911A03029790931A03809319038138BF
S1133F002FEF92070CF04CCF81E89FEF90931A03A8
S1133F108093190320911703309118038FE790E0E1
S1133F2045CF8091190390911A03029790931A0335
S1133F308093190320911703309118032E5F3F4F8C
S1133F40309318032093170381384FEF94070CF034
S1133F50D6C081E89FEF90931A0380931903203809
S1133F603105E4F281E89FEF2FE730E03093180346
S1133F702093170319CF10921A0310921903109269
S1133F801803109217038091CC02883009F4EDC015
S1133F9020E030E080E090E009CF80911903909117
S1133FA01A03029690931A0380931903209117031E
S1133FB030911803225031093093180320931703CA
S1133FC0803891050CF4A0C08FE790E090931A0319
S1133FD08093190321388FEF38070CF09FCF8FE7B8
S1133FE090E021E83FEF3093180320931703DCCED1
S1133FF020911703309118032E5F3F4F309318031D
S113400020931703203831050CF472C08FE790E039
S113401090931803809317038091190390911A03C6
S11340202FE730E0C1CE8091190390911A030296D4
S113403090931A0380931903803891050CF4B0CE41
S11340408FE790E090931A0380931903209117034C
S113405030911803ABCE8091F20290E0019665E0B6
S113406070E00E9430518093F202811153C0449A4F
S1134070459A10920D028FEF80930E0280930F02E7
S11340800E940E4680910E020E94224680910D02EB
S11340900E9436468091190390911A0320911703C8
S11340A03091180381CE8091190390911A032091C5
S11340B0170330911803281739070CF0C901029629
S11340C090931A0380931903909318038093170312
S11340D08038910594F08FE790E090931A038093D1
S11340E0190390931803809317032FE730E05ECEF3
S11340F08091190390911A0357CE9C0155CE203814
S113410031050CF451CE30CF21384FEF34070CF089
S11341104BCE67CF8130F1F1823009F443C0833054
S113412009F44BC08FEF80930D0280930E028093AD
S11341300F02A6CF81E08093B5028093B4028091F0
S1134140190390911A0320911703309118032CCE70
S11341508093B5021092B4028091190390911A03CE
S113416020911703309118031FCE0E94A6478FEFAA
S113417093E09093A8038093A7039093AE03809356
S1134180AD0386E08093461581E08093A01280936E
S1134190530F02CE8FEF80930D0210920E02809384
S11341A00F026ECF449845988FEF80930D02809351
S11341B00E0210920F0280E063CF10920D02109253
S11341C00E0210920F0280E05BCF8F929F92AF920B
S11341D0BF92CF92DF92EF92FF920F931F93FC0155
S11341E080819181892B09F4A7C020910C1530910D
S11341F00D153093A6122093A5120081118117FD8D
S1134200D7C080911F0390912003081B190B1093B2
S11342100D1500930C154091070350910803400FAE
S1134220511F413486E058070CF49BC080E496E0AB
S1134230909308038093070390ECC92E92E1D92E42
S1134240E12CF12C80819181AC01440F551F440F66
S1134250551F440F551F4A01550FAA08BB08D80122
S1134260AA0FBB1FB801660F771F660F771F660F73
S1134270771FAD01460F571F052E000C660B770BF9
S1134280480D591D6A1D7B1D021B130B000F111FC6
S1134290012E000C220B330B400F511F621F731FA2
S11342A04C0D5D1D6E1D7F1D40930F035093100335
S11342B0609311037093120377FD65C04115510596
S11342C06105710509F492C097FD5FC0413C8DE51D
S11342D05807610571050CF489C080EC9DE5A0E0E8
S11342E0B0E080930F0390931003A0931103B09355
S11342F012034CED55E05183408380912903909142
S11343002A03181619060CF06CC04F5F5F4F5183D7
S11343104083411582E05807E4F08FEF91E09183E8
S113432080831F910F91FF90EF90DF90CF90BF900B
S1134330AF909F908F9008951092080310920703F6
S113434010920D1510920C151092A6121092A5122F
S1134350E8CF41305E4F2CF781E09EEF918380835C
S1134360E0CF403C89EF580774F580EC99EF9093C7
S1134370080380930703B0E4CB2EBDEEDB2EEE24BE
S1134380EA94FE2C5FCF97FD31C010920F03109278
S11343901003109211031092120340E050E0BA018E
S11343A084E075956795579547958A95D1F7A3CF7E
S11343B040911F0350912003040F151F10930D15F6
S11343C000930C1528CF50930803409307036A0108
S11343D0CC0CDD1C4C0D5D1D6A01550FEE08FF0869
S11343E031CF415051095183408393CF403482EA05
S11343F058078FEF680778079CF680E492EAAFEFDE
S1134400BFEF80930F0390931003A0931103B09315
S1134410120344E25AEF6FCF8F929F92AF92BF92F2
S1134420CF92DF92EF92FF920F931F93FC01808152
S11344309181892B09F4A7C02091580F3091590F0D
S113444030936E1320936D130081118117FDD7C033
S11344508091210390912203081B190B1093590F8B
S11344600093580F4091090350910A03400F511FC4
S1134470413486E058070CF49BC080E496E09093A6
S11344800A038093090390ECC92E92E1D92EE12C02
S1134490F12C80819181AC01440F551F440F551FAD
S11344A0440F551F4A01550FAA08BB08D801AA0F8B
S11344B0BB1FB801660F771F660F771F660F771F44
S11344C0AD01460F571F052E000C660B770B480DE8
S11344D0591D6A1D7B1D021B130B000F111F012E9A
S11344E0000C220B330B400F511F621F731F4C0D26
S11344F05D1D6E1D7F1D40930B0350930C03609351
S11345000D0370930E0377FD65C0411551056105D8
S1134510710509F492C097FD5FC0413C8DE55807D1
S1134520610571050CF489C080EC9DE5A0E0B0E064
S113453080930B0390930C03A0930D03B0930E038D
S11345404CED55E0518340838091270390912803DB
S1134550181619060CF06CC04F5F5F4F51834083EF
S1134560411582E05807E4F08FEF91E09183808356
S11345701F910F91FF90EF90DF90CF90BF90AF907D
S11345809F908F90089510920A031092090310923D
S1134590590F1092580F10926E1310926D13E8CFAA
S11345A041305E4F2CF781E09EEF91838083E0CF12
S11345B0403C89EF580774F580EC99EF90930A0317
S11345C080930903B0E4CB2EBDEEDB2EEE24EA94F7
S11345D0FE2C5FCF97FD31C010920B0310920C0399
S11345E010920D0310920E0340E050E0BA0184E0F3
S11345F075956795579547958A95D1F7A3CF4091BF
S1134600210350912203040F151F1093590F009397
S1134610580F28CF50930A03409309036A01CC0C26
S1134620DD1C4C0D5D1D6A01550FEE08FF0831CFEE
S1134630415051095183408393CF403482EA580753
S11346408FEF680778079CF680E492EAAFEFBFEF3C
S113465080930B0390930C03A0930D03B0930E036C
S113466044E25AEF6FCF85B7806185BF8FEF81B980
S113467012B897EF94B990EE95B990EF97B990EB83
S113468098B99CEF9AB993E09BB98DB91EB810BA4A
S113469083BB8091C902811103C014BA8091C902FD
S11346A0813009F440C08230D9F18FEF8093010149
S11346B0109202018FE0809304018091C90281115C
S11346C006C080910501109205018091C9028130D4
S11346D009F18230D9F0109207018FEF80930A011B
S11346E08091C902811104C010920B018091C9020A
S11346F0813039F0823009F0089587EF80930B01FF
S1134700089510920B018091C902F4CF8FE0809339
S11347100501E1CF8FE0809305018091C902D9CFD3
S113472088E084BBC2CF14BA8091C902BCCF589A26
S1134730599A1092B90081E08093B800089594EAE0
S11347409093BC009091BC0097FFFCCF9091B9006E
S1134750987F983021F0903111F081E00895809392
S1134760BB0084E88093BC008091BC0087FFFCCF31
S11347708091B900887F883111F0803471F780E02E
S1134780089594EA9093BC009091BC0097FFFCCFED
S11347909091B900987F983021F0903111F081E028
S11347A008958093BB0084E88093BC008091BC0092
S11347B087FFFCCF8091B900887F883111F0803465
S11347C071F780E0089584E98093BC008091BC0077
S11347D084FDFCCF08958093BB0084E88093BC00E3
S11347E08091BC0087FFFCCF9091B900987F81E055
S11347F0983209F0089580E0089584EC8093BC0019
S11348008091BC0087FFFCCF8091BB00089584E8B1
S11348108093BC008091BC0087FFFCCF8091BB00DB
S113482008951092C50080E18093C400E0ECF0E0AC
S1134830808182608083E1ECF0E0808188698083FC
S1134840E2ECF0E080818660808308951F920F92ED
S11348500FB60F9211240BB60F922F933F934F93E1
S11348605F936F937F938F939F93AF93BF93EF93D4
S1134870FF939091C6008091CC028E30E1F18F308D
S113488009F43FC080910C0281111EC08091F8028E
S1134890813009F462C08230D9F48091F602882311
S11348A009F46DC08130A1F42091FD023091FE0223
S11348B0392B3093FE022093FD028093F70210926D
S11348C0F60280930C0204C010920C029093F8023A
S11348D0FF91EF91BF91AF919F918F917F916F91D4
S11348E05F914F913F912F910F900BBE0F900FBE90
S11348F00F901F9018959A3A59F781E080936302BC
S1134900E7CF9B3201F19D3291F1973609F041C016
S11349109091F4028091C00085FFFCCF9093C60073
S11349208091C00086FFFCCF909166009093350F74
S11349308091C00085FFFCCF9093C6008091C00099
S113494086FFFCCFC5CF8091350F8F3F19F08F5F65
S11349508093350F80936600BBCF9A3A21F1953549
S113496009F0B6CF80930C021092F802B1CF809177
S1134970350F882379F381508093350FEBCF892F3E
S113498090E09093FE028093FD0281E08093F60212
S11349909FCF933709F09CCF6091350F8DEF9FE047
S11349A00E946B5295CF8093F50292CF86B136B1B7
S11349B096B126B193FB992790F9990F32FB3327CF
S11349C030F9930F990F26952170920F990F8170EA
S11349D0890F0895F89414BC15BC10926E001092BF
S11349E02001109221018EEF9FE00E943D5290938E
S11349F0FE028093FD028DEF9FE00E94355280936A
S1134A00350F9FEF980F9E3FE0F5809366008091ED
S1134A10FD029091FE029C0121583C402330310557
S1134A2008F51092C9020E945C420E9433230E943E
S1134A30B2250E94242C0E94EC450E94DC140E94A2
S1134A40C5158091FB02811105C08091FC02816033
S1134A508093FC020E9411240E944A460E94381D41
S1134A607894089580382CE0920721F481E08093B3
S1134A70C902D9CF84389C40B0F282E08093C90245
S1134A80D2CF609166006093350F8DEF9FE00E9456
S1134A906B52BDCF1F920F920FB60F9211240F903D
S1134AA00FBE0F901F9018956091CD027091CE02A9
S1134AB08091CF029091D002089581E080934803C1
S1134AC0089510922F031092300310923103109224
S1134AD03203109233031092340310923503109270
S1134AE036031092AF021092B0021092B1021092EB
S1134AF0B2021092D4021092D30210928A0210923F
S1134B008B0210928C0210928D021092EA02109283
S1134B10E9021092E8021092E7021092E602109263
S1134B20E5021092A7021092A8021092A902109214
S1134B30AA021092A3021092A4021092A50210924B
S1134B40A602109297021092980210929902109263
S1134B509A0210929B0210929C0210929D02109253
S1134B609E020895CF93DF93EAE7F0E01082ABE76B
S1134B70B0E01C92CCE7D0E018828081866080830C
S1134B808881806488838081806280838C91887F1F
S1134B908C93808188608083808180688083808119
S1134BA080648083DF91CF9108951F920F920FB696
S1134BB00F9211240BB60F922F933F934F935F9351
S1134BC06F937F938F939F93AF93BF93CF93EF9301
S1134BD0FF938091CD029091CE02A091CF02B0912B
S1134BE0D0028F3F2FEF9207A207B20709F422C128
S1134BF00196A11DB11D8093CD029093CE02A09386
S1134C00CF02B093D002809178002091790090E097
S1134C10922B20914E03223009F41CC208F4C1C027
S1134C20243009F41EC108F43DC22630A9F5409190
S1134C30E30350916102242F30E0F90168E0569FAC
S1134C40E00DF11D1124EE0FFF1F60914E127091C3
S1134C504F12E60FF71F91838083220F331FE091D9
S1134C601C15F0911D15E20FF31F60817181681707
S1134C70790710F491838083E091AC0FF091AD0F2C
S1134C80E20FF31F208131818217930710F491837F
S1134C9080834F5F4093E30380916502823009F47F
S1134CA097C0813009F4CFC081112DC080914D038C
S1134CB0823009F495C308F000C1882309F4A3C322
S1134CC0813009F58091E2038093E4038091DF034E
S1134CD080934B0310924E0382E080934D03C09166
S1134CE06702C13009F4D7C3C23069F48091E30389
S1134CF0873149F4C093650280915D02813009F4E3
S1134D0014C1109265028091E403883010F58091FB
S1134D107B00877F80937B008091E403805C809399
S1134D207C0080914D03823011F1FF91EF91CF917E
S1134D30BF91AF919F918F917F916F915F914F91AF
S1134D403F912F910F900BBE0F900FBE0F901F90AD
S1134D50189580917B00886080937B008091E403A8
S1134D60885C80937C0080914D038230F1F68091C1
S1134D7065028111DACF8091C902811108C0809146
S1134D800501807F8093050112B88091C9028130AA
S1134D9009F4BFC0823049F68FEF8093050112B841
S1134DA0C4CF222309F4C5C0213009F075CF209166
S1134DB02B0330912C03820F931F96958795909324
S1134DC02C0380932B0380916502823009F069CF14
S1134DD080915E02813009F478C108F4A1C0833067
S1134DE009F49DC1843009F08ECF809152028F5F07
S1134DF08093520290E0209155023091560282171E
S1134E00930709F4CDC18091E2038093E403809178
S1134E10DF0380934B0380914C03882309F4AAC1D8
S1134E20813009F4C1C385E080934E0383E080930D
S1134E305E0269CF1092CD021092CE021092CF0280
S1134E401092D002E0CE8091620290E08D30910504
S1134E5008F059CFFC018827E254FF4F8F4F0C9480
S1134E60855120911102222309F416CF30910001BB
S1134E7033FD12CF3091000134FD0ECF2F5F20930C
S1134E801102253008F408CF40911B0350911C03F4
S1134E90452B51F04091250350912603840F951F13
S1134EA09093260380932503283009F0F5CE1092C1
S1134EB0110281E080931402EFCE833009F47DC2A5
S1134EC0843009F020CF9091E1039093E403909112
S1134ED0E00390934C0390914B039111C4C283E07F
S1134EE080934E0310924D038091E3038E3009F4B6
S1134EF0F7C280FF08CF803108F0FEC2869521E01A
S1134F0030E0A90102C0440F551F8A95E2F742B967
S1134F10FACE8FEF8093050112B88091C9023ACF7F
S1134F2080915D02813009F0EECE81E080935E02D3
S1134F30EACE2091E3032E3009F475C2E22FF0E0AB
S1134F40EE0FFF1FE155FC4F9183808320FF7CC04F
S1134F50422F50E0FA01EE0FFF1FE355FC4F808112
S1134F609181440F551FFA01E155FC4F6081718115
S1134F70422F469550E0861B970B440F551FFA01AC
S1134F80E158FC4F60817181861B970B97FD78C2B5
S1134F90813074E097070CF4F1C080E094E0FA01EA
S1134FA0E956FC4F91838083203188F480E094E0BB
S1134FB0FA01E95CFC4F845A914095958795959543
S1134FC08795959587958C549F4F91838083809185
S1134FD0B402882309F436C28091A7039091A803F0
S1134FE0843A9140B4F08091A9039091AA03843A41
S1134FF091407CF08091AB039091AC03843A914052
S113500044F08091AD039091AE03843A91400CF04A
S113501019C281E08093B30210921C0310921B0307
S11350201092A9001092A8001092AB001092AA004E
S113503010921E0310921D03109299001092980072
S113504010929B0010929A002F5F2831C0F5209394
S1135050E30322CE20911202222309F41DCE639988
S11350601BCE649919CE2F5F20931202253008F4C9
S113507013CE40911D0350911E03452B51F04091D6
S1135080230350912403840F951F9093240380934A
S11350902303283009F000CE1092120281E080939D
S11350A01302FACD20912D0330912E03820F931F0A
S11350B09695879590932E0380932D03EDCD1092B2
S11350C0E30381E080934703E7CD8091C902811116
S11350D008C080910501807F8093050112B88091FA
S11350E0C902813009F4A4C0823009F49CC08091C3
S11350F0E2038093E4038091DF0380934B0385E014
S113510080934E038093640282E080935E028091D8
S11351105102811125C081E080935102F4CD809128
S113512052028F5F8093520290E020915502309199
S113513056028217930709F45DC08091E1038093BE
S1135140E4038091E00380934C0380914B0381112D
S11351500AC083E080934E0384E080935E02D3CD43
S113516010925102D0CD813009F405C285E08093BC
S11351704E03F2CF81E080934E0358CEFA01E956F4
S1135180FC4F91838083203108F021CF8C3391052B
S11351900CF0C2C2FA01E95CFC4F9183808317CF03
S11351A010925202809157028111DAC181E08093FA
S11351B0570280915102811115C28AEA82B9809105
S11351C053028F5F809353029091540289131BCE34
S11351D0809158028F5F809358028C3009F47FC20B
S11351E082E08093640282E080935E0285E0809393
S11351F04E0389CD10925202809157028111ACC1A5
S113520081E080935702809151028111E8C18AEABA
S113521082B9809153028F5F80935302909154021C
S113522089138BCFD5CF8FEF8093050112B85FCF51
S11352308FEF8093050112B88091C90255CF8091F8
S1135240E3038F5F8093E40386E080934E0387E05B
S11352508093620258CD8091E3038F5F8093E403CF
S113526086E080934E03809362024DCD8091E303E8
S11352708F5F8093E40386E080934E0385E0809300
S1135280620241CD8091E3038F5F8093E40386E063
S113529080934E0384E08093620235CD8091E303D2
S11352A08F5F8093E40386E080934E0383E08093D2
S11352B0620229CD8091E3038F5F8093E40386E04B
S11352C080934E0382E0809362021DCD1092E3032B
S11352D081E08093E40396E090934E03809362020E
S11352E012CD85E080934E030ECD8091E10380932F
S11352F0E4038091E00380934C0380914B0381117C
S113530033C183E080934E0390915F029E3F18F473
S11353109F5F90935F02809161028F5F809361022F
S113532020916402243009F44FC1843109F479C115
S11353308BE080936202E7CC8091E2038093E403E4
S11353408091DF0380934B0380914C03811125C12D
S113535081E080934E038AE080936202D4CC109261
S1135360E40380914C0381110AC181E080934E03D0
S113537010926202C8CC8091E1038093E40380918F
S1135380E00380934C0380914B038111FFC083E0C1
S113539080934E0389E080936202B5CC8091E2034E
S11353A08093E4038091DF0380934B0386E0809332
S11353B04E0388E080936202A6CC8091E20380933E
S11353C0E4038091DF0380934B0380914C038111AC
S11353D03CC081E080934E0384E080934D0393CCE2
S11353E08091E1038093E4038091E00380934C0374
S11353F080914B0381113DC083E080934E0383E091
S113540080934D0380CC8091E30386958093E403DD
S113541080914C03811120C081E080934E0381E090
S113542080934D0370CC30914803323009F086CD1F
S113543090934A038093490310924803469820911D
S1135440E30384CD1092B302FFCD813009F4B0C0E0
S113545085E080934E03C0CF813009F4B1C085E06C
S113546080934E03DCCF913009F085E080934E03A6
S113547039CD813009F4A0C085E080934E03BFCFBD
S1135480FA01E956FC4F11821082203108F09FCDB9
S113549080E090E07FCE8091E303873109F033CC44
S11354A01092E40310924803109262021092610277
S11354B0E0911C15F0911D1580E1DF011D928A9584
S11354C0E9F740E150E06FEF70E08091AC0F90910C
S11354D0AD0F0E941E52C0936502C091670204CCB6
S11354E080914803813009F00ECC82E08093480318
S11354F0469A8091E303FDCC9091C902911110C0AA
S113550090E040979595879521E030E0B90102C07D
S1135510660F771F8A95E2F7609305019091C9029F
S1135520913009F462C0923009F0EDCB409105014D
S11355308091E30390E040979595879521E030E0D2
S1135540B90102C0660F771F8A95E2F7CB018095F7
S1135550842380930501D7CB1092570212B859CEF9
S11355601092570212B82BCE813009F4B0C085E0F6
S113557080934E03C9CE84E080934E03EDCD8130F9
S113558009F44BC085E080934E03F2CE813009F4D8
S11355909AC085E080934E03FDCE813009F49BC010
S11355A085E080934E03D7CE82E080934E033ECCB9
S11355B082E080934E0310CF84E080934E031FCF8C
S11355C082E080934E032BCF10926102809160029F
S11355D0981708F4ADCE85E080936402A9CE85E5E2
S11355E082B917CE85E582B9EACD40910501809153
S11355F0E30390E040979595879521E030E0D90149
S113560002C0AA0FBB1F8A95E2F7CD0180958423BF
S1135610809305019091C90286CF82E080934E0366
S1135620A7CE109261028091321290913312209190
S11356304E1230914F1230933312209332129093C2
S11356404F1280934E12E0912F0FF091300F809102
S11356501C1590911D159093300F80932F0FF0938C
S11356601D15E0931C1580911B0F90911C0F9093B6
S11356705E1580935D152091AC0F3091AD0F309382
S11356801C0F20931B0F9093AD0F8093AC0F80E100
S1135690DF011D928A95E9F740E150E06FEF70E079
S11356A08091AC0F9091AD0F0E941E5280916402C4
S11356B0813061F180916402853009F039CE86E051
S11356C08093640235CE84E080934E0363CE84E0FD
S11356D080934E0319CE82E080934E033CCE81E04A
S11356E08093640210925D0210924D031092650241
S11356F00E94D24C12B80E945425609359027093B0
S11357005A0280935B0290935C026DCD82E0809399
S1135710640210925F02CECFBC01645C7F4F603F95
S1135720710554F4FA01E95CFC4FCC979595879583
S1135730CC96918380834BCCBC01645D7E4F603DED
S113574072400CF035CCFA01E95CFC4F845B9109A2
S1135750959587959595879588589F4F91838083D4
S113576036CC8091190390911A03009741F120914E
S1135770150330911603829FA001839F500D929FC1
S1135780500D112457FD1BC0281739070CF04CC0CD
S113579040910702240F311D821793070CF04FC06C
S11357A09093160380931503809117039091180327
S11357B0009779F410921403109213030895109231
S11357C01603109215038091170390911803009704
S11357D089F32091130330911403829FA001839FC6
S11357E0500D929F500D112457FDE4CF281739070F
S11357F064F440910702240F311D821793077CF44F
S11358009093140380931303089582179307E4F786
S113581040910702241B3109281739078CF3309370
S113582014032093130308958217930764F6409199
S11358300702241B3109281739070CF4B1CF309320
S1135840160320931503BFCF0F931F93CF93DF93BA
S1135850E0E9F0E0108241E950E0DA011C9221E72E
S113586030E0E9011882A0EAB0E01C9281EA90E0FD
S1135870EC01188202E710E0E80118826081636895
S11358806083608163606083EA0168816B60688320
S113589040911D0350911E0350939900409398002A
S11358A010929B0010929A00E9014881416048835C
S11358B020812F7520832EB1277E2EB92C91236849
S11358C02C93FC0120812B60208380911B039091F9
S11358D01C039093A9008093A8001092AB0010922F
S11358E0AA00E8018881816088838C918F758C93EC
S11358F0E2E0F1E08081877E8083DF91CF911F9188
S11359000F910895AF92BF92CF92DF92EF92FF92E0
S11359100F931F93CF93DF938091530F882309F440
S1135920C1C0C0911503D0911603009113031091C7
S11359301403809114028823C1F1609125037091AE
S11359402603769567957695679570932203609301
S113595021031092140210922603109225038091C1
S113596017039091180375956795759567957595C7
S1135970679597FD1CC1072E000C880B990B0E949C
S1135980A74E9B01AC0160912F037091300380916D
S11359903103909132030E94DB4C60932F03709388
S11359A03003809331039093320380911302882350
S11359B0C1F16091230370912403769567957695E0
S11359C067957093200360931F0310921302109243
S11359D02403109223038091190390911A0375955F
S11359E06795759567957595679597FDC5C0072E5D
S11359F0000C880B990B0E94A74E9B01AC0160918F
S1135A0033037091340380913503909136030E94DF
S1135A10DB4C60933303709334038093350390938A
S1135A203603CE01880F991F880F991F8C0F9D1F75
S1135A3090930603809305039801220F331F220FCE
S1135A40331F200F311F309304032093030340912D
S1135A50B502411176C030931C0320931B0390932D
S1135A601E0380931D03181619060CF079C0909339
S1135A7099008093980080911B0390911C03181641
S1135A8019060CF052C09093A9008093A800DF91EE
S1135A90CF911F910F91FF90EF90DF90CF90BF9027
S1135AA0AF9008950E945425DC01CB019C01AD0107
S1135AB060E070E080E090E0A090BC02B090BD0295
S1135AC0C090BE02D090BF02E090C002F090C1022C
S1135AD00091C2021091C3020E9498512F383140A4
S1135AE041055105610571058105910509F008F429
S1135AF018CF0E945425DC01CB018093BC02909303
S1135B00BD02A093BE02B093BF021092C0021092D5
S1135B10C1021092C2021092C3028091BB02882378
S1135B2009F468C00E94B12BFCCE009709F073C041
S1135B301092A9001092A8001092AB001092AA0033
S1135B40A6CF65E073E083E093E00E94E5432091F3
S1135B5003033091040380910503909106037BCFE6
S1135B60009709F03FC0109299001092980010928B
S1135B709B0010929A007FCF072E000C880B990B84
S1135B800E94A74E9B01AC016091330370913403D2
S1135B9080913503909136030E94DA4C609333036D
S1135BA07093340380933503909336033ACF072ED2
S1135BB0000C880B990B0E94A74E9B01AC016091CD
S1135BC02F037091300380913103909132030E942E
S1135BD0DA4C60932F0370933003809331039093D6
S1135BE03203E3CE91958195910990939B00809324
S1135BF09A0041CFC0911903D0911A03D093160390
S1135C00C093150300911703109118031093140304
S1135C10009313038ECE9195819591099093AB00D7
S1135C208093AA0034CF282F082E000C330B37FDA5
S1135C3013C0309302032093010387FD05C0309302
S1135C401803209317030895319521953109309352
S1135C501803209317030895319521953109E9CF4D
S1135C60282F082E000C330B37FD13C0309300038C
S1135C702093FF0287FD05C030931A032093190374
S1135C80089531952195310930931A03209319030E
S1135C900895319521953109E9CF8091380F81110B
S1135CA031C0E091A012E23008F496C0F0E0DF01C8
S1135CB0A295B295B07FBA27A07FBA27A955BD4E49
S1135CC012962D913C91139780915B1590915C15E0
S1135CD02817390734F0C901019690935C15809315
S1135CE05B15E295F295F07FFE27E07FFE27E954ED
